{
  "_format": "hh-sol-artifact-1",
  "contractName": "PersonalVault",
  "sourceName": "contracts/PersonalVault.sol",
  "abi": [
    {
      "inputs": [],
      "stateMutability": "nonpayable",
      "type": "constructor"
    },
    {
      "inputs": [],
      "name": "InvalidInitialization",
      "type": "error"
    },
    {
      "inputs": [],
      "name": "NotInitializing",
      "type": "error"
    },
    {
      "inputs": [],
      "name": "ReentrancyGuardReentrantCall",
      "type": "error"
    },
    {
      "inputs": [
        {
          "internalType": "address",
          "name": "token",
          "type": "address"
        }
      ],
      "name": "SafeERC20FailedOperation",
      "type": "error"
    },
    {
      "anonymous": false,
      "inputs": [
        {
          "indexed": true,
          "internalType": "address",
          "name": "beneficiary",
          "type": "address"
        },
        {
          "indexed": false,
          "internalType": "uint256",
          "name": "amount",
          "type": "uint256"
        }
      ],
      "name": "BeneficiaryClaimed",
      "type": "event"
    },
    {
      "anonymous": false,
      "inputs": [
        {
          "indexed": true,
          "internalType": "address",
          "name": "user",
          "type": "address"
        },
        {
          "indexed": false,
          "internalType": "uint256",
          "name": "amount",
          "type": "uint256"
        },
        {
          "indexed": false,
          "internalType": "uint256",
          "name": "timestamp",
          "type": "uint256"
        }
      ],
      "name": "Deposited",
      "type": "event"
    },
    {
      "anonymous": false,
      "inputs": [
        {
          "indexed": true,
          "internalType": "address",
          "name": "user",
          "type": "address"
        },
        {
          "indexed": false,
          "internalType": "uint256",
          "name": "amountWithdraw",
          "type": "uint256"
        },
        {
          "indexed": false,
          "internalType": "uint256",
          "name": "penaltyPaid",
          "type": "uint256"
        }
      ],
      "name": "EarlyWithdrawal",
      "type": "event"
    },
    {
      "anonymous": false,
      "inputs": [
        {
          "indexed": true,
          "internalType": "address",
          "name": "user",
          "type": "address"
        },
        {
          "indexed": false,
          "internalType": "uint256",
          "name": "amount",
          "type": "uint256"
        }
      ],
      "name": "FullWithdrawal",
      "type": "event"
    },
    {
      "anonymous": false,
      "inputs": [
        {
          "indexed": false,
          "internalType": "uint64",
          "name": "version",
          "type": "uint64"
        }
      ],
      "name": "Initialized",
      "type": "event"
    },
    {
      "anonymous": false,
      "inputs": [
        {
          "indexed": true,
          "internalType": "address",
          "name": "user",
          "type": "address"
        },
        {
          "indexed": false,
          "internalType": "uint256",
          "name": "amount",
          "type": "uint256"
        },
        {
          "indexed": false,
          "internalType": "uint256",
          "name": "timestamp",
          "type": "uint256"
        },
        {
          "indexed": false,
          "internalType": "string",
          "name": "typeOfWithdrawal",
          "type": "string"
        }
      ],
      "name": "Withdrawn",
      "type": "event"
    },
    {
      "inputs": [],
      "name": "GRACE_PERIOD",
      "outputs": [
        {
          "internalType": "uint256",
          "name": "",
          "type": "uint256"
        }
      ],
      "stateMutability": "view",
      "type": "function"
    },
    {
      "inputs": [],
      "name": "SUCCESS_FEE_BPS",
      "outputs": [
        {
          "internalType": "uint256",
          "name": "",
          "type": "uint256"
        }
      ],
      "stateMutability": "view",
      "type": "function"
    },
    {
      "inputs": [],
      "name": "aTokenAddress",
      "outputs": [
        {
          "internalType": "address",
          "name": "",
          "type": "address"
        }
      ],
      "stateMutability": "view",
      "type": "function"
    },
    {
      "inputs": [],
      "name": "aavePool",
      "outputs": [
        {
          "internalType": "contract IAavePool",
          "name": "",
          "type": "address"
        }
      ],
      "stateMutability": "view",
      "type": "function"
    },
    {
      "inputs": [],
      "name": "beneficiary",
      "outputs": [
        {
          "internalType": "address",
          "name": "",
          "type": "address"
        }
      ],
      "stateMutability": "view",
      "type": "function"
    },
    {
      "inputs": [],
      "name": "claimByBeneficiary",
      "outputs": [],
      "stateMutability": "nonpayable",
      "type": "function"
    },
    {
      "inputs": [
        {
          "internalType": "uint256",
          "name": "amount",
          "type": "uint256"
        }
      ],
      "name": "deposit",
      "outputs": [],
      "stateMutability": "nonpayable",
      "type": "function"
    },
    {
      "inputs": [
        {
          "internalType": "uint256",
          "name": "amount",
          "type": "uint256"
        }
      ],
      "name": "depositFromFactory",
      "outputs": [],
      "stateMutability": "nonpayable",
      "type": "function"
    },
    {
      "inputs": [],
      "name": "factory",
      "outputs": [
        {
          "internalType": "address",
          "name": "",
          "type": "address"
        }
      ],
      "stateMutability": "view",
      "type": "function"
    },
    {
      "inputs": [
        {
          "internalType": "address",
          "name": "_token",
          "type": "address"
        },
        {
          "internalType": "address",
          "name": "_aavePool",
          "type": "address"
        },
        {
          "internalType": "string",
          "name": "_purpose",
          "type": "string"
        },
        {
          "internalType": "uint256",
          "name": "_unlockTimestamp",
          "type": "uint256"
        },
        {
          "internalType": "uint256",
          "name": "_penaltyBps",
          "type": "uint256"
        },
        {
          "internalType": "address",
          "name": "_treasury",
          "type": "address"
        },
        {
          "internalType": "address",
          "name": "_beneficiary",
          "type": "address"
        },
        {
          "internalType": "uint256",
          "name": "_vaultId",
          "type": "uint256"
        }
      ],
      "name": "initialize",
      "outputs": [],
      "stateMutability": "nonpayable",
      "type": "function"
    },
    {
      "inputs": [],
      "name": "owner",
      "outputs": [
        {
          "internalType": "address",
          "name": "",
          "type": "address"
        }
      ],
      "stateMutability": "view",
      "type": "function"
    },
    {
      "inputs": [],
      "name": "penaltyBps",
      "outputs": [
        {
          "internalType": "uint256",
          "name": "",
          "type": "uint256"
        }
      ],
      "stateMutability": "view",
      "type": "function"
    },
    {
      "inputs": [],
      "name": "purpose",
      "outputs": [
        {
          "internalType": "string",
          "name": "",
          "type": "string"
        }
      ],
      "stateMutability": "view",
      "type": "function"
    },
    {
      "inputs": [],
      "name": "token",
      "outputs": [
        {
          "internalType": "contract IERC20",
          "name": "",
          "type": "address"
        }
      ],
      "stateMutability": "view",
      "type": "function"
    },
    {
      "inputs": [],
      "name": "totalAssets",
      "outputs": [
        {
          "internalType": "uint256",
          "name": "",
          "type": "uint256"
        }
      ],
      "stateMutability": "view",
      "type": "function"
    },
    {
      "inputs": [],
      "name": "totalPrincipal",
      "outputs": [
        {
          "internalType": "uint256",
          "name": "",
          "type": "uint256"
        }
      ],
      "stateMutability": "view",
      "type": "function"
    },
    {
      "inputs": [],
      "name": "treasury",
      "outputs": [
        {
          "internalType": "address",
          "name": "",
          "type": "address"
        }
      ],
      "stateMutability": "view",
      "type": "function"
    },
    {
      "inputs": [],
      "name": "unlockTimestamp",
      "outputs": [
        {
          "internalType": "uint256",
          "name": "",
          "type": "uint256"
        }
      ],
      "stateMutability": "view",
      "type": "function"
    },
    {
      "inputs": [],
      "name": "vaultId",
      "outputs": [
        {
          "internalType": "uint256",
          "name": "",
          "type": "uint256"
        }
      ],
      "stateMutability": "view",
      "type": "function"
    },
    {
      "inputs": [],
      "name": "withdraw",
      "outputs": [],
      "stateMutability": "nonpayable",
      "type": "function"
    }
  ],
  "bytecode": "0x60806040523480156200001157600080fd5b5060016000819055506200002a6200003060201b60201c565b620001c3565b6000620000426200013a60201b60201c565b90508060000160089054906101000a900460ff16156200008e576040517ff92ee8a900000000000000000000000000000000000000000000000000000000815260040160405180910390fd5b67ffffffffffffffff80168160000160009054906101000a900467ffffffffffffffff1667ffffffffffffffff1614620001375767ffffffffffffffff8160000160006101000a81548167ffffffffffffffff021916908367ffffffffffffffff1602179055507fc7f505b2f371ae2175ee4913f4499e1f2633a7b5936321eed1cdaeb6115181d267ffffffffffffffff6040516200012e9190620001a6565b60405180910390a15b50565b6000806200014d6200015660201b60201c565b90508091505090565b60007ff0c57e16840df040f15088dc2f81fe391c3923bec73e23a9662efc9c229c6a0060001b905090565b600067ffffffffffffffff82169050919050565b620001a08162000181565b82525050565b6000602082019050620001bd600083018462000195565b92915050565b612a7c80620001d36000396000f3fe608060405234801561001057600080fd5b506004361061012c5760003560e01c80638045b3bd116100ad578063c1a287e211610071578063c1a287e2146102c5578063c45a0155146102e3578063dcfc0ced14610301578063ecfad9fd1461031f578063fc0c546a1461033d5761012c565b80638045b3bd146102315780638da5cb5b1461024f578063a03e4bc31461026d578063aa082a9d1461028b578063b6b55f25146102a95761012c565b80634b1533b2116100f45780634b1533b21461019f5780635084fd48146101bd5780635cdd1009146101d957806361d027b3146101f557806370740aab146102135761012c565b806301e1d11414610131578063178ea6ad1461014f57806333194c0a1461015957806338af3eed146101775780633ccfd60b14610195575b600080fd5b61013961035b565b6040516101469190611944565b60405180910390f35b6101576103fe565b005b61016161061b565b60405161016e9190611944565b60405180910390f35b61017f610621565b60405161018c91906119a0565b60405180910390f35b61019d610647565b005b6101a7610b5d565b6040516101b49190611944565b60405180910390f35b6101d760048036038101906101d29190611b6d565b610b63565b005b6101f360048036038101906101ee9190611c3f565b61101e565b005b6101fd61113a565b60405161020a91906119a0565b60405180910390f35b61021b611160565b6040516102289190611ceb565b60405180910390f35b6102396111ee565b6040516102469190611944565b60405180910390f35b6102576111f4565b60405161026491906119a0565b60405180910390f35b610275611299565b6040516102829190611d6c565b60405180910390f35b6102936112bf565b6040516102a09190611944565b60405180910390f35b6102c360048036038101906102be9190611c3f565b6112c5565b005b6102cd611451565b6040516102da9190611944565b60405180910390f35b6102eb611459565b6040516102f891906119a0565b60405180910390f35b61030961147f565b60405161031691906119a0565b60405180910390f35b6103276114a5565b6040516103349190611944565b60405180910390f35b6103456114ab565b6040516103529190611da8565b60405180910390f35b6000600360009054906101000a900473ffffffffffffffffffffffffffffffffffffffff1673ffffffffffffffffffffffffffffffffffffffff166370a08231306040518263ffffffff1660e01b81526004016103b891906119a0565b602060405180830381865afa1580156103d5573d6000803e3d6000fd5b505050506040513d601f19601f820116820180604052508101906103f99190611dd8565b905090565b6104066114d1565b600860009054906101000a900473ffffffffffffffffffffffffffffffffffffffff1673ffffffffffffffffffffffffffffffffffffffff163373ffffffffffffffffffffffffffffffffffffffff1614610496576040517f08c379a000000000000000000000000000000000000000000000000000000000815260040161048d90611e51565b60405180910390fd5b6000600260009054906101000a900473ffffffffffffffffffffffffffffffffffffffff1673ffffffffffffffffffffffffffffffffffffffff166369328dec600160009054906101000a900473ffffffffffffffffffffffffffffffffffffffff167fffffffffffffffffffffffffffffffffffffffffffffffffffffffffffffffff600760009054906101000a900473ffffffffffffffffffffffffffffffffffffffff166040518463ffffffff1660e01b815260040161055b93929190611e71565b6020604051808303816000875af115801561057a573d6000803e3d6000fd5b505050506040513d601f19601f8201168201806040525081019061059e9190611dd8565b9050600760009054906101000a900473ffffffffffffffffffffffffffffffffffffffff1673ffffffffffffffffffffffffffffffffffffffff167f735e2ef7d759ed5edc5b5cfd70bd63f00eddd61e652119b1825287362957ad59826040516106089190611944565b60405180910390a250610619611517565b565b60095481565b600760009054906101000a900473ffffffffffffffffffffffffffffffffffffffff1681565b61064f6111f4565b73ffffffffffffffffffffffffffffffffffffffff163373ffffffffffffffffffffffffffffffffffffffff16146106bc576040517f08c379a00000000000000000000000000000000000000000000000000000000081526004016106b390611ef4565b60405180910390fd5b6106c46114d1565b6000600260009054906101000a900473ffffffffffffffffffffffffffffffffffffffff1673ffffffffffffffffffffffffffffffffffffffff166369328dec600160009054906101000a900473ffffffffffffffffffffffffffffffffffffffff167fffffffffffffffffffffffffffffffffffffffffffffffffffffffffffffffff306040518463ffffffff1660e01b815260040161076793929190611e71565b6020604051808303816000875af1158015610786573d6000803e3d6000fd5b505050506040513d601f19601f820116820180604052508101906107aa9190611dd8565b9050600081116107ef576040517f08c379a00000000000000000000000000000000000000000000000000000000081526004016107e690611f60565b60405180910390fd5b60045442106109b0576000600b5482111561081557600b54826108129190611faf565b90505b60006127106107d0836108289190611fe3565b6108329190612054565b9050600081846108429190611faf565b905060008211156108bd576108bc600660009054906101000a900473ffffffffffffffffffffffffffffffffffffffff1683600160009054906101000a900473ffffffffffffffffffffffffffffffffffffffff1673ffffffffffffffffffffffffffffffffffffffff166115219092919063ffffffff16565b5b61090a3382600160009054906101000a900473ffffffffffffffffffffffffffffffffffffffff1673ffffffffffffffffffffffffffffffffffffffff166115219092919063ffffffff16565b3373ffffffffffffffffffffffffffffffffffffffff167f62116a798bb58cc967874bea4d771de2f9aeec6c64189ff2e5a551072f3106f982426040516109529291906120d1565b60405180910390a23373ffffffffffffffffffffffffffffffffffffffff167f779c86999fb727ca861d0288aa11ed4104347721c571e4f0da5172afb607d885826040516109a09190611944565b60405180910390a2505050610b52565b6000612710600554836109c39190611fe3565b6109cd9190612054565b9050600081836109dd9190611faf565b90506000821115610a5857610a57600660009054906101000a900473ffffffffffffffffffffffffffffffffffffffff1683600160009054906101000a900473ffffffffffffffffffffffffffffffffffffffff1673ffffffffffffffffffffffffffffffffffffffff166115219092919063ffffffff16565b5b6000811115610aaf57610aae3382600160009054906101000a900473ffffffffffffffffffffffffffffffffffffffff1673ffffffffffffffffffffffffffffffffffffffff166115219092919063ffffffff16565b5b3373ffffffffffffffffffffffffffffffffffffffff167f62116a798bb58cc967874bea4d771de2f9aeec6c64189ff2e5a551072f3106f98242604051610af7929190612159565b60405180910390a23373ffffffffffffffffffffffffffffffffffffffff167f1670585e36568ede58d159518ce92cad99f75ad41c7d8281df3dd4eaa0c855d08284604051610b47929190612195565b60405180910390a250505b50610b5b611517565b565b600b5481565b6000610b6d6115a0565b905060008160000160089054906101000a900460ff1615905060008260000160009054906101000a900467ffffffffffffffff1690506000808267ffffffffffffffff16148015610bbb5750825b9050600060018367ffffffffffffffff16148015610bf0575060003073ffffffffffffffffffffffffffffffffffffffff163b145b905081158015610bfe575080155b15610c35576040517ff92ee8a900000000000000000000000000000000000000000000000000000000815260040160405180910390fd5b60018560000160006101000a81548167ffffffffffffffff021916908367ffffffffffffffff1602179055508315610c855760018560000160086101000a81548160ff0219169083151502179055505b8c600160006101000a81548173ffffffffffffffffffffffffffffffffffffffff021916908373ffffffffffffffffffffffffffffffffffffffff1602179055508b600260006101000a81548173ffffffffffffffffffffffffffffffffffffffff021916908373ffffffffffffffffffffffffffffffffffffffff16021790555060008c73ffffffffffffffffffffffffffffffffffffffff166335ea6a758f6040518263ffffffff1660e01b8152600401610d4291906119a0565b6101e060405180830381865afa158015610d60573d6000803e3d6000fd5b505050506040513d601f19601f82011682018060405250810190610d8491906123fb565b9050806101000151600360006101000a81548173ffffffffffffffffffffffffffffffffffffffff021916908373ffffffffffffffffffffffffffffffffffffffff160217905550600073ffffffffffffffffffffffffffffffffffffffff16600360009054906101000a900473ffffffffffffffffffffffffffffffffffffffff1673ffffffffffffffffffffffffffffffffffffffff1603610e5d576040517f08c379a0000000000000000000000000000000000000000000000000000000008152600401610e5490612475565b60405180910390fd5b8b600a9081610e6c9190612697565b508a6004819055508960058190555088600660006101000a81548173ffffffffffffffffffffffffffffffffffffffff021916908373ffffffffffffffffffffffffffffffffffffffff16021790555087600760006101000a81548173ffffffffffffffffffffffffffffffffffffffff021916908373ffffffffffffffffffffffffffffffffffffffff16021790555033600860006101000a81548173ffffffffffffffffffffffffffffffffffffffff021916908373ffffffffffffffffffffffffffffffffffffffff16021790555086600981905550610fb28d7fffffffffffffffffffffffffffffffffffffffffffffffffffffffffffffffff600160009054906101000a900473ffffffffffffffffffffffffffffffffffffffff1673ffffffffffffffffffffffffffffffffffffffff166115b49092919063ffffffff16565b50831561100f5760008560000160086101000a81548160ff0219169083151502179055507fc7f505b2f371ae2175ee4913f4499e1f2633a7b5936321eed1cdaeb6115181d2600160405161100691906127b8565b60405180910390a15b50505050505050505050505050565b6110266114d1565b600860009054906101000a900473ffffffffffffffffffffffffffffffffffffffff1673ffffffffffffffffffffffffffffffffffffffff163373ffffffffffffffffffffffffffffffffffffffff16146110b6576040517f08c379a00000000000000000000000000000000000000000000000000000000081526004016110ad9061281f565b60405180910390fd5b6110bf816116c3565b80600b60008282546110d1919061283f565b925050819055506110e06111f4565b73ffffffffffffffffffffffffffffffffffffffff167f73a19dd210f1a7f902193214c0ee91dd35ee5b4d920cba8d519eca65a7b488ca8242604051611127929190612195565b60405180910390a2611137611517565b50565b600660009054906101000a900473ffffffffffffffffffffffffffffffffffffffff1681565b600a805461116d906124c4565b80601f0160208091040260200160405190810160405280929190818152602001828054611199906124c4565b80156111e65780601f106111bb576101008083540402835291602001916111e6565b820191906000526020600020905b8154815290600101906020018083116111c957829003601f168201915b505050505081565b6107d081565b6000600860009054906101000a900473ffffffffffffffffffffffffffffffffffffffff1673ffffffffffffffffffffffffffffffffffffffff16636352211e6009546040518263ffffffff1660e01b81526004016112539190611944565b602060405180830381865afa158015611270573d6000803e3d6000fd5b505050506040513d601f19601f820116820180604052508101906112949190612873565b905090565b600260009054906101000a900473ffffffffffffffffffffffffffffffffffffffff1681565b60045481565b6112cd6111f4565b73ffffffffffffffffffffffffffffffffffffffff163373ffffffffffffffffffffffffffffffffffffffff161461133a576040517f08c379a000000000000000000000000000000000000000000000000000000000815260040161133190611ef4565b60405180910390fd5b6113426114d1565b60008111611385576040517f08c379a000000000000000000000000000000000000000000000000000000000815260040161137c906128ec565b60405180910390fd5b6113d4333083600160009054906101000a900473ffffffffffffffffffffffffffffffffffffffff1673ffffffffffffffffffffffffffffffffffffffff1661177c909392919063ffffffff16565b6113dd816116c3565b80600b60008282546113ef919061283f565b925050819055503373ffffffffffffffffffffffffffffffffffffffff167f73a19dd210f1a7f902193214c0ee91dd35ee5b4d920cba8d519eca65a7b488ca824260405161143e929190612195565b60405180910390a261144e611517565b50565b6301e1338081565b600860009054906101000a900473ffffffffffffffffffffffffffffffffffffffff1681565b600360009054906101000a900473ffffffffffffffffffffffffffffffffffffffff1681565b60055481565b600160009054906101000a900473ffffffffffffffffffffffffffffffffffffffff1681565b60026000540361150d576040517f3ee5aeb500000000000000000000000000000000000000000000000000000000815260040160405180910390fd5b6002600081905550565b6001600081905550565b61159b838473ffffffffffffffffffffffffffffffffffffffff1663a9059cbb858560405160240161155492919061290c565b604051602081830303815290604052915060e01b6020820180517bffffffffffffffffffffffffffffffffffffffffffffffffffffffff83818316178352505050506117fe565b505050565b6000806115ab6118a0565b90508091505090565b60008373ffffffffffffffffffffffffffffffffffffffff1663095ea7b384846040516024016115e592919061290c565b604051602081830303815290604052915060e01b6020820180517bffffffffffffffffffffffffffffffffffffffffffffffffffffffff8381831617835250505050905061163384826118cb565b6116bd576116b2848573ffffffffffffffffffffffffffffffffffffffff1663095ea7b386600060405160240161166b929190612970565b604051602081830303815290604052915060e01b6020820180517bffffffffffffffffffffffffffffffffffffffffffffffffffffffff83818316178352505050506117fe565b6116bc84826117fe565b5b50505050565b600260009054906101000a900473ffffffffffffffffffffffffffffffffffffffff1673ffffffffffffffffffffffffffffffffffffffff1663617ba037600160009054906101000a900473ffffffffffffffffffffffffffffffffffffffff16833060006040518563ffffffff1660e01b815260040161174794939291906129ca565b600060405180830381600087803b15801561176157600080fd5b505af1158015611775573d6000803e3d6000fd5b5050505050565b6117f8848573ffffffffffffffffffffffffffffffffffffffff166323b872dd8686866040516024016117b193929190612a0f565b604051602081830303815290604052915060e01b6020820180517bffffffffffffffffffffffffffffffffffffffffffffffffffffffff83818316178352505050506117fe565b50505050565b600080602060008451602086016000885af180611821576040513d6000823e3d81fd5b3d92506000519150506000821461183c576001811415611858565b60008473ffffffffffffffffffffffffffffffffffffffff163b145b1561189a57836040517f5274afe700000000000000000000000000000000000000000000000000000000815260040161189191906119a0565b60405180910390fd5b50505050565b60007ff0c57e16840df040f15088dc2f81fe391c3923bec73e23a9662efc9c229c6a0060001b905090565b6000806000806020600086516020880160008a5af192503d91506000519050828015611920575060008214611903576001811461191f565b60008673ffffffffffffffffffffffffffffffffffffffff163b115b5b935050505092915050565b6000819050919050565b61193e8161192b565b82525050565b60006020820190506119596000830184611935565b92915050565b600073ffffffffffffffffffffffffffffffffffffffff82169050919050565b600061198a8261195f565b9050919050565b61199a8161197f565b82525050565b60006020820190506119b56000830184611991565b92915050565b6000604051905090565b600080fd5b600080fd5b6119d88161197f565b81146119e357600080fd5b50565b6000813590506119f5816119cf565b92915050565b600080fd5b600080fd5b6000601f19601f8301169050919050565b7f4e487b7100000000000000000000000000000000000000000000000000000000600052604160045260246000fd5b611a4e82611a05565b810181811067ffffffffffffffff82111715611a6d57611a6c611a16565b5b80604052505050565b6000611a806119bb565b9050611a8c8282611a45565b919050565b600067ffffffffffffffff821115611aac57611aab611a16565b5b611ab582611a05565b9050602081019050919050565b82818337600083830152505050565b6000611ae4611adf84611a91565b611a76565b905082815260208101848484011115611b0057611aff611a00565b5b611b0b848285611ac2565b509392505050565b600082601f830112611b2857611b276119fb565b5b8135611b38848260208601611ad1565b91505092915050565b611b4a8161192b565b8114611b5557600080fd5b50565b600081359050611b6781611b41565b92915050565b600080600080600080600080610100898b031215611b8e57611b8d6119c5565b5b6000611b9c8b828c016119e6565b9850506020611bad8b828c016119e6565b975050604089013567ffffffffffffffff811115611bce57611bcd6119ca565b5b611bda8b828c01611b13565b9650506060611beb8b828c01611b58565b9550506080611bfc8b828c01611b58565b94505060a0611c0d8b828c016119e6565b93505060c0611c1e8b828c016119e6565b92505060e0611c2f8b828c01611b58565b9150509295985092959890939650565b600060208284031215611c5557611c546119c5565b5b6000611c6384828501611b58565b91505092915050565b600081519050919050565b600082825260208201905092915050565b60005b83811015611ca6578082015181840152602081019050611c8b565b60008484015250505050565b6000611cbd82611c6c565b611cc78185611c77565b9350611cd7818560208601611c88565b611ce081611a05565b840191505092915050565b60006020820190508181036000830152611d058184611cb2565b905092915050565b6000819050919050565b6000611d32611d2d611d288461195f565b611d0d565b61195f565b9050919050565b6000611d4482611d17565b9050919050565b6000611d5682611d39565b9050919050565b611d6681611d4b565b82525050565b6000602082019050611d816000830184611d5d565b92915050565b6000611d9282611d39565b9050919050565b611da281611d87565b82525050565b6000602082019050611dbd6000830184611d99565b92915050565b600081519050611dd281611b41565b92915050565b600060208284031215611dee57611ded6119c5565b5b6000611dfc84828501611dc3565b91505092915050565b7f4f6e6c7920666163746f72790000000000000000000000000000000000000000600082015250565b6000611e3b600c83611c77565b9150611e4682611e05565b602082019050919050565b60006020820190508181036000830152611e6a81611e2e565b9050919050565b6000606082019050611e866000830186611991565b611e936020830185611935565b611ea06040830184611991565b949350505050565b7f4e6f7420746865204e4654206f776e6572000000000000000000000000000000600082015250565b6000611ede601183611c77565b9150611ee982611ea8565b602082019050919050565b60006020820190508181036000830152611f0d81611ed1565b9050919050565b7f4e6f2066756e6473000000000000000000000000000000000000000000000000600082015250565b6000611f4a600883611c77565b9150611f5582611f14565b602082019050919050565b60006020820190508181036000830152611f7981611f3d565b9050919050565b7f4e487b7100000000000000000000000000000000000000000000000000000000600052601160045260246000fd5b6000611fba8261192b565b9150611fc58361192b565b9250828203905081811115611fdd57611fdc611f80565b5b92915050565b6000611fee8261192b565b9150611ff98361192b565b92508282026120078161192b565b9150828204841483151761201e5761201d611f80565b5b5092915050565b7f4e487b7100000000000000000000000000000000000000000000000000000000600052601260045260246000fd5b600061205f8261192b565b915061206a8361192b565b92508261207a57612079612025565b5b828204905092915050565b7f4d41545552495459000000000000000000000000000000000000000000000000600082015250565b60006120bb600883611c77565b91506120c682612085565b602082019050919050565b60006060820190506120e66000830185611935565b6120f36020830184611935565b8181036040830152612104816120ae565b90509392505050565b7f4541524c595f4558495400000000000000000000000000000000000000000000600082015250565b6000612143600a83611c77565b915061214e8261210d565b602082019050919050565b600060608201905061216e6000830185611935565b61217b6020830184611935565b818103604083015261218c81612136565b90509392505050565b60006040820190506121aa6000830185611935565b6121b76020830184611935565b9392505050565b600080fd5b60006fffffffffffffffffffffffffffffffff82169050919050565b6121e8816121c3565b81146121f357600080fd5b50565b600081519050612205816121df565b92915050565b600064ffffffffff82169050919050565b6122258161220b565b811461223057600080fd5b50565b6000815190506122428161221c565b92915050565b600061ffff82169050919050565b61225f81612248565b811461226a57600080fd5b50565b60008151905061227c81612256565b92915050565b600081519050612291816119cf565b92915050565b60006101e082840312156122ae576122ad6121be565b5b6122b96101e0611a76565b905060006122c984828501611dc3565b60008301525060206122dd848285016121f6565b60208301525060406122f1848285016121f6565b6040830152506060612305848285016121f6565b6060830152506080612319848285016121f6565b60808301525060a061232d848285016121f6565b60a08301525060c061234184828501612233565b60c08301525060e06123558482850161226d565b60e08301525061010061236a84828501612282565b6101008301525061012061238084828501612282565b6101208301525061014061239684828501612282565b610140830152506101606123ac84828501612282565b610160830152506101806123c2848285016121f6565b610180830152506101a06123d8848285016121f6565b6101a0830152506101c06123ee848285016121f6565b6101c08301525092915050565b60006101e08284031215612412576124116119c5565b5b600061242084828501612297565b91505092915050565b7f496e76616c69642061546f6b656e000000000000000000000000000000000000600082015250565b600061245f600e83611c77565b915061246a82612429565b602082019050919050565b6000602082019050818103600083015261248e81612452565b9050919050565b7f4e487b7100000000000000000000000000000000000000000000000000000000600052602260045260246000fd5b600060028204905060018216806124dc57607f821691505b6020821081036124ef576124ee612495565b5b50919050565b60008190508160005260206000209050919050565b60006020601f8301049050919050565b600082821b905092915050565b6000600883026125577fffffffffffffffffffffffffffffffffffffffffffffffffffffffffffffffff8261251a565b612561868361251a565b95508019841693508086168417925050509392505050565b600061259461258f61258a8461192b565b611d0d565b61192b565b9050919050565b6000819050919050565b6125ae83612579565b6125c26125ba8261259b565b848454612527565b825550505050565b600090565b6125d76125ca565b6125e28184846125a5565b505050565b5b81811015612606576125fb6000826125cf565b6001810190506125e8565b5050565b601f82111561264b5761261c816124f5565b6126258461250a565b81016020851015612634578190505b6126486126408561250a565b8301826125e7565b50505b505050565b600082821c905092915050565b600061266e60001984600802612650565b1980831691505092915050565b6000612687838361265d565b9150826002028217905092915050565b6126a082611c6c565b67ffffffffffffffff8111156126b9576126b8611a16565b5b6126c382546124c4565b6126ce82828561260a565b600060209050601f83116001811461270157600084156126ef578287015190505b6126f9858261267b565b865550612761565b601f19841661270f866124f5565b60005b8281101561273757848901518255600182019150602085019450602081019050612712565b868310156127545784890151612750601f89168261265d565b8355505b6001600288020188555050505b505050505050565b6000819050919050565b600067ffffffffffffffff82169050919050565b60006127a261279d61279884612769565b611d0d565b612773565b9050919050565b6127b281612787565b82525050565b60006020820190506127cd60008301846127a9565b92915050565b7f4f6e6c7920466163746f72790000000000000000000000000000000000000000600082015250565b6000612809600c83611c77565b9150612814826127d3565b602082019050919050565b60006020820190508181036000830152612838816127fc565b9050919050565b600061284a8261192b565b91506128558361192b565b925082820190508082111561286d5761286c611f80565b5b92915050565b600060208284031215612889576128886119c5565b5b600061289784828501612282565b91505092915050565b7f416d6f756e74203e203000000000000000000000000000000000000000000000600082015250565b60006128d6600a83611c77565b91506128e1826128a0565b602082019050919050565b60006020820190508181036000830152612905816128c9565b9050919050565b60006040820190506129216000830185611991565b61292e6020830184611935565b9392505050565b6000819050919050565b600061295a61295561295084612935565b611d0d565b61192b565b9050919050565b61296a8161293f565b82525050565b60006040820190506129856000830185611991565b6129926020830184612961565b9392505050565b60006129b46129af6129aa84612935565b611d0d565b612248565b9050919050565b6129c481612999565b82525050565b60006080820190506129df6000830187611991565b6129ec6020830186611935565b6129f96040830185611991565b612a0660608301846129bb565b95945050505050565b6000606082019050612a246000830186611991565b612a316020830185611991565b612a3e6040830184611935565b94935050505056fea264697066735822122068b4efe4408fdc2622b197f4c5904f8369e4622e32689de6b237313e7e93d74664736f6c63430008140033",
  "linkReferences": {},
  "deployedLinkReferences": {}
}