{
  "_format": "hh-sol-artifact-1",
  "contractName": "VaultFactory",
  "sourceName": "contracts/VaultFactory.sol",
  "abi": [
    {
      "inputs": [
        {
          "internalType": "address",
          "name": "_usdcToken",
          "type": "address"
        },
        {
          "internalType": "address",
          "name": "_aavePool",
          "type": "address"
        },
        {
          "internalType": "address",
          "name": "_protocolTreasury",
          "type": "address"
        },
        {
          "internalType": "address",
          "name": "_implementation",
          "type": "address"
        }
      ],
      "stateMutability": "nonpayable",
      "type": "constructor"
    },
    {
      "inputs": [
        {
          "internalType": "uint256",
          "name": "numerator",
          "type": "uint256"
        },
        {
          "internalType": "uint256",
          "name": "denominator",
          "type": "uint256"
        }
      ],
      "name": "ERC2981InvalidDefaultRoyalty",
      "type": "error"
    },
    {
      "inputs": [
        {
          "internalType": "address",
          "name": "receiver",
          "type": "address"
        }
      ],
      "name": "ERC2981InvalidDefaultRoyaltyReceiver",
      "type": "error"
    },
    {
      "inputs": [
        {
          "internalType": "uint256",
          "name": "tokenId",
          "type": "uint256"
        },
        {
          "internalType": "uint256",
          "name": "numerator",
          "type": "uint256"
        },
        {
          "internalType": "uint256",
          "name": "denominator",
          "type": "uint256"
        }
      ],
      "name": "ERC2981InvalidTokenRoyalty",
      "type": "error"
    },
    {
      "inputs": [
        {
          "internalType": "uint256",
          "name": "tokenId",
          "type": "uint256"
        },
        {
          "internalType": "address",
          "name": "receiver",
          "type": "address"
        }
      ],
      "name": "ERC2981InvalidTokenRoyaltyReceiver",
      "type": "error"
    },
    {
      "inputs": [
        {
          "internalType": "address",
          "name": "sender",
          "type": "address"
        },
        {
          "internalType": "uint256",
          "name": "tokenId",
          "type": "uint256"
        },
        {
          "internalType": "address",
          "name": "owner",
          "type": "address"
        }
      ],
      "name": "ERC721IncorrectOwner",
      "type": "error"
    },
    {
      "inputs": [
        {
          "internalType": "address",
          "name": "operator",
          "type": "address"
        },
        {
          "internalType": "uint256",
          "name": "tokenId",
          "type": "uint256"
        }
      ],
      "name": "ERC721InsufficientApproval",
      "type": "error"
    },
    {
      "inputs": [
        {
          "internalType": "address",
          "name": "approver",
          "type": "address"
        }
      ],
      "name": "ERC721InvalidApprover",
      "type": "error"
    },
    {
      "inputs": [
        {
          "internalType": "address",
          "name": "operator",
          "type": "address"
        }
      ],
      "name": "ERC721InvalidOperator",
      "type": "error"
    },
    {
      "inputs": [
        {
          "internalType": "address",
          "name": "owner",
          "type": "address"
        }
      ],
      "name": "ERC721InvalidOwner",
      "type": "error"
    },
    {
      "inputs": [
        {
          "internalType": "address",
          "name": "receiver",
          "type": "address"
        }
      ],
      "name": "ERC721InvalidReceiver",
      "type": "error"
    },
    {
      "inputs": [
        {
          "internalType": "address",
          "name": "sender",
          "type": "address"
        }
      ],
      "name": "ERC721InvalidSender",
      "type": "error"
    },
    {
      "inputs": [
        {
          "internalType": "uint256",
          "name": "tokenId",
          "type": "uint256"
        }
      ],
      "name": "ERC721NonexistentToken",
      "type": "error"
    },
    {
      "inputs": [],
      "name": "FailedDeployment",
      "type": "error"
    },
    {
      "inputs": [
        {
          "internalType": "uint256",
          "name": "balance",
          "type": "uint256"
        },
        {
          "internalType": "uint256",
          "name": "needed",
          "type": "uint256"
        }
      ],
      "name": "InsufficientBalance",
      "type": "error"
    },
    {
      "inputs": [
        {
          "internalType": "address",
          "name": "owner",
          "type": "address"
        }
      ],
      "name": "OwnableInvalidOwner",
      "type": "error"
    },
    {
      "inputs": [
        {
          "internalType": "address",
          "name": "account",
          "type": "address"
        }
      ],
      "name": "OwnableUnauthorizedAccount",
      "type": "error"
    },
    {
      "inputs": [
        {
          "internalType": "address",
          "name": "token",
          "type": "address"
        }
      ],
      "name": "SafeERC20FailedOperation",
      "type": "error"
    },
    {
      "anonymous": false,
      "inputs": [
        {
          "indexed": true,
          "internalType": "address",
          "name": "owner",
          "type": "address"
        },
        {
          "indexed": true,
          "internalType": "address",
          "name": "approved",
          "type": "address"
        },
        {
          "indexed": true,
          "internalType": "uint256",
          "name": "tokenId",
          "type": "uint256"
        }
      ],
      "name": "Approval",
      "type": "event"
    },
    {
      "anonymous": false,
      "inputs": [
        {
          "indexed": true,
          "internalType": "address",
          "name": "owner",
          "type": "address"
        },
        {
          "indexed": true,
          "internalType": "address",
          "name": "operator",
          "type": "address"
        },
        {
          "indexed": false,
          "internalType": "bool",
          "name": "approved",
          "type": "bool"
        }
      ],
      "name": "ApprovalForAll",
      "type": "event"
    },
    {
      "anonymous": false,
      "inputs": [
        {
          "indexed": true,
          "internalType": "address",
          "name": "previousOwner",
          "type": "address"
        },
        {
          "indexed": true,
          "internalType": "address",
          "name": "newOwner",
          "type": "address"
        }
      ],
      "name": "OwnershipTransferred",
      "type": "event"
    },
    {
      "anonymous": false,
      "inputs": [
        {
          "indexed": true,
          "internalType": "address",
          "name": "from",
          "type": "address"
        },
        {
          "indexed": true,
          "internalType": "address",
          "name": "to",
          "type": "address"
        },
        {
          "indexed": true,
          "internalType": "uint256",
          "name": "tokenId",
          "type": "uint256"
        }
      ],
      "name": "Transfer",
      "type": "event"
    },
    {
      "anonymous": false,
      "inputs": [
        {
          "indexed": true,
          "internalType": "address",
          "name": "user",
          "type": "address"
        },
        {
          "indexed": false,
          "internalType": "address",
          "name": "vault",
          "type": "address"
        },
        {
          "indexed": false,
          "internalType": "uint256",
          "name": "vaultId",
          "type": "uint256"
        },
        {
          "indexed": false,
          "internalType": "string",
          "name": "purpose",
          "type": "string"
        }
      ],
      "name": "VaultCreated",
      "type": "event"
    },
    {
      "inputs": [],
      "name": "ROYALTY_BPS",
      "outputs": [
        {
          "internalType": "uint96",
          "name": "",
          "type": "uint96"
        }
      ],
      "stateMutability": "view",
      "type": "function"
    },
    {
      "inputs": [],
      "name": "aavePool",
      "outputs": [
        {
          "internalType": "address",
          "name": "",
          "type": "address"
        }
      ],
      "stateMutability": "view",
      "type": "function"
    },
    {
      "inputs": [
        {
          "internalType": "uint256",
          "name": "",
          "type": "uint256"
        }
      ],
      "name": "allVaults",
      "outputs": [
        {
          "internalType": "address",
          "name": "",
          "type": "address"
        }
      ],
      "stateMutability": "view",
      "type": "function"
    },
    {
      "inputs": [
        {
          "internalType": "address",
          "name": "to",
          "type": "address"
        },
        {
          "internalType": "uint256",
          "name": "tokenId",
          "type": "uint256"
        }
      ],
      "name": "approve",
      "outputs": [],
      "stateMutability": "nonpayable",
      "type": "function"
    },
    {
      "inputs": [
        {
          "internalType": "address",
          "name": "owner",
          "type": "address"
        }
      ],
      "name": "balanceOf",
      "outputs": [
        {
          "internalType": "uint256",
          "name": "",
          "type": "uint256"
        }
      ],
      "stateMutability": "view",
      "type": "function"
    },
    {
      "inputs": [
        {
          "internalType": "string",
          "name": "_purpose",
          "type": "string"
        },
        {
          "internalType": "uint256",
          "name": "_unlockTimestamp",
          "type": "uint256"
        },
        {
          "internalType": "uint256",
          "name": "_penaltyBps",
          "type": "uint256"
        },
        {
          "internalType": "uint256",
          "name": "_initialDeposit",
          "type": "uint256"
        },
        {
          "internalType": "address",
          "name": "_beneficiary",
          "type": "address"
        }
      ],
      "name": "createPersonalVault",
      "outputs": [
        {
          "internalType": "address",
          "name": "",
          "type": "address"
        }
      ],
      "stateMutability": "nonpayable",
      "type": "function"
    },
    {
      "inputs": [
        {
          "internalType": "uint256",
          "name": "tokenId",
          "type": "uint256"
        }
      ],
      "name": "getApproved",
      "outputs": [
        {
          "internalType": "address",
          "name": "",
          "type": "address"
        }
      ],
      "stateMutability": "view",
      "type": "function"
    },
    {
      "inputs": [
        {
          "internalType": "address",
          "name": "_user",
          "type": "address"
        }
      ],
      "name": "getUserVaults",
      "outputs": [
        {
          "internalType": "address[]",
          "name": "",
          "type": "address[]"
        }
      ],
      "stateMutability": "view",
      "type": "function"
    },
    {
      "inputs": [],
      "name": "implementation",
      "outputs": [
        {
          "internalType": "address",
          "name": "",
          "type": "address"
        }
      ],
      "stateMutability": "view",
      "type": "function"
    },
    {
      "inputs": [
        {
          "internalType": "address",
          "name": "owner",
          "type": "address"
        },
        {
          "internalType": "address",
          "name": "operator",
          "type": "address"
        }
      ],
      "name": "isApprovedForAll",
      "outputs": [
        {
          "internalType": "bool",
          "name": "",
          "type": "bool"
        }
      ],
      "stateMutability": "view",
      "type": "function"
    },
    {
      "inputs": [
        {
          "internalType": "address",
          "name": "",
          "type": "address"
        }
      ],
      "name": "isVault",
      "outputs": [
        {
          "internalType": "bool",
          "name": "",
          "type": "bool"
        }
      ],
      "stateMutability": "view",
      "type": "function"
    },
    {
      "inputs": [],
      "name": "name",
      "outputs": [
        {
          "internalType": "string",
          "name": "",
          "type": "string"
        }
      ],
      "stateMutability": "view",
      "type": "function"
    },
    {
      "inputs": [],
      "name": "nextVaultId",
      "outputs": [
        {
          "internalType": "uint256",
          "name": "",
          "type": "uint256"
        }
      ],
      "stateMutability": "view",
      "type": "function"
    },
    {
      "inputs": [],
      "name": "owner",
      "outputs": [
        {
          "internalType": "address",
          "name": "",
          "type": "address"
        }
      ],
      "stateMutability": "view",
      "type": "function"
    },
    {
      "inputs": [
        {
          "internalType": "uint256",
          "name": "tokenId",
          "type": "uint256"
        }
      ],
      "name": "ownerOf",
      "outputs": [
        {
          "internalType": "address",
          "name": "",
          "type": "address"
        }
      ],
      "stateMutability": "view",
      "type": "function"
    },
    {
      "inputs": [],
      "name": "protocolTreasury",
      "outputs": [
        {
          "internalType": "address",
          "name": "",
          "type": "address"
        }
      ],
      "stateMutability": "view",
      "type": "function"
    },
    {
      "inputs": [],
      "name": "renounceOwnership",
      "outputs": [],
      "stateMutability": "nonpayable",
      "type": "function"
    },
    {
      "inputs": [
        {
          "internalType": "uint256",
          "name": "tokenId",
          "type": "uint256"
        },
        {
          "internalType": "uint256",
          "name": "salePrice",
          "type": "uint256"
        }
      ],
      "name": "royaltyInfo",
      "outputs": [
        {
          "internalType": "address",
          "name": "receiver",
          "type": "address"
        },
        {
          "internalType": "uint256",
          "name": "amount",
          "type": "uint256"
        }
      ],
      "stateMutability": "view",
      "type": "function"
    },
    {
      "inputs": [
        {
          "internalType": "address",
          "name": "from",
          "type": "address"
        },
        {
          "internalType": "address",
          "name": "to",
          "type": "address"
        },
        {
          "internalType": "uint256",
          "name": "tokenId",
          "type": "uint256"
        }
      ],
      "name": "safeTransferFrom",
      "outputs": [],
      "stateMutability": "nonpayable",
      "type": "function"
    },
    {
      "inputs": [
        {
          "internalType": "address",
          "name": "from",
          "type": "address"
        },
        {
          "internalType": "address",
          "name": "to",
          "type": "address"
        },
        {
          "internalType": "uint256",
          "name": "tokenId",
          "type": "uint256"
        },
        {
          "internalType": "bytes",
          "name": "data",
          "type": "bytes"
        }
      ],
      "name": "safeTransferFrom",
      "outputs": [],
      "stateMutability": "nonpayable",
      "type": "function"
    },
    {
      "inputs": [
        {
          "internalType": "address",
          "name": "operator",
          "type": "address"
        },
        {
          "internalType": "bool",
          "name": "approved",
          "type": "bool"
        }
      ],
      "name": "setApprovalForAll",
      "outputs": [],
      "stateMutability": "nonpayable",
      "type": "function"
    },
    {
      "inputs": [
        {
          "internalType": "string",
          "name": "baseURI",
          "type": "string"
        }
      ],
      "name": "setBaseURI",
      "outputs": [],
      "stateMutability": "nonpayable",
      "type": "function"
    },
    {
      "inputs": [
        {
          "internalType": "bytes4",
          "name": "interfaceId",
          "type": "bytes4"
        }
      ],
      "name": "supportsInterface",
      "outputs": [
        {
          "internalType": "bool",
          "name": "",
          "type": "bool"
        }
      ],
      "stateMutability": "view",
      "type": "function"
    },
    {
      "inputs": [],
      "name": "symbol",
      "outputs": [
        {
          "internalType": "string",
          "name": "",
          "type": "string"
        }
      ],
      "stateMutability": "view",
      "type": "function"
    },
    {
      "inputs": [
        {
          "internalType": "uint256",
          "name": "tokenId",
          "type": "uint256"
        }
      ],
      "name": "tokenURI",
      "outputs": [
        {
          "internalType": "string",
          "name": "",
          "type": "string"
        }
      ],
      "stateMutability": "view",
      "type": "function"
    },
    {
      "inputs": [
        {
          "internalType": "address",
          "name": "from",
          "type": "address"
        },
        {
          "internalType": "address",
          "name": "to",
          "type": "address"
        },
        {
          "internalType": "uint256",
          "name": "tokenId",
          "type": "uint256"
        }
      ],
      "name": "transferFrom",
      "outputs": [],
      "stateMutability": "nonpayable",
      "type": "function"
    },
    {
      "inputs": [
        {
          "internalType": "address",
          "name": "newOwner",
          "type": "address"
        }
      ],
      "name": "transferOwnership",
      "outputs": [],
      "stateMutability": "nonpayable",
      "type": "function"
    },
    {
      "inputs": [
        {
          "internalType": "address",
          "name": "_vault",
          "type": "address"
        }
      ],
      "name": "triggerBeneficiaryClaim",
      "outputs": [],
      "stateMutability": "nonpayable",
      "type": "function"
    },
    {
      "inputs": [],
      "name": "usdcToken",
      "outputs": [
        {
          "internalType": "address",
          "name": "",
          "type": "address"
        }
      ],
      "stateMutability": "view",
      "type": "function"
    },
    {
      "inputs": [
        {
          "internalType": "address",
          "name": "",
          "type": "address"
        },
        {
          "internalType": "uint256",
          "name": "",
          "type": "uint256"
        }
      ],
      "name": "userVaults",
      "outputs": [
        {
          "internalType": "address",
          "name": "",
          "type": "address"
        }
      ],
      "stateMutability": "view",
      "type": "function"
    },
    {
      "inputs": [
        {
          "internalType": "uint256",
          "name": "",
          "type": "uint256"
        }
      ],
      "name": "vaultById",
      "outputs": [
        {
          "internalType": "address",
          "name": "",
          "type": "address"
        }
      ],
      "stateMutability": "view",
      "type": "function"
    }
  ],
  "bytecode": "0x60e06040526001600a553480156200001657600080fd5b5060405162005c5f38038062005c5f83398181016040528101906200003c91906200061e565b336040518060400160405280601381526020017f5361766971756520536176696e6773204e4654000000000000000000000000008152506040518060400160405280600481526020017f53415649000000000000000000000000000000000000000000000000000000008152508160009081620000ba91906200090a565b508060019081620000cc91906200090a565b505050600073ffffffffffffffffffffffffffffffffffffffff168173ffffffffffffffffffffffffffffffffffffffff1603620001445760006040517f1e4fbdf70000000000000000000000000000000000000000000000000000000081526004016200013b919062000a02565b60405180910390fd5b62000155816200033460201b60201c565b50600073ffffffffffffffffffffffffffffffffffffffff168473ffffffffffffffffffffffffffffffffffffffff1603620001c8576040517f08c379a0000000000000000000000000000000000000000000000000000000008152600401620001bf9062000a80565b60405180910390fd5b600073ffffffffffffffffffffffffffffffffffffffff168173ffffffffffffffffffffffffffffffffffffffff16036200023a576040517f08c379a0000000000000000000000000000000000000000000000000000000008152600401620002319062000af2565b60405180910390fd5b8373ffffffffffffffffffffffffffffffffffffffff1660808173ffffffffffffffffffffffffffffffffffffffff16815250508273ffffffffffffffffffffffffffffffffffffffff1660a08173ffffffffffffffffffffffffffffffffffffffff168152505081600960006101000a81548173ffffffffffffffffffffffffffffffffffffffff021916908373ffffffffffffffffffffffffffffffffffffffff1602179055508073ffffffffffffffffffffffffffffffffffffffff1660c08173ffffffffffffffffffffffffffffffffffffffff16815250506200032a8260fa620003fa60201b60201c565b5050505062000ba3565b6000600860009054906101000a900473ffffffffffffffffffffffffffffffffffffffff16905081600860006101000a81548173ffffffffffffffffffffffffffffffffffffffff021916908373ffffffffffffffffffffffffffffffffffffffff1602179055508173ffffffffffffffffffffffffffffffffffffffff168173ffffffffffffffffffffffffffffffffffffffff167f8be0079c531659141344cd1fd0a4f28419497f9722a3daafe3b4186f6b6457e060405160405180910390a35050565b60006200040c620005aa60201b60201c565b6bffffffffffffffffffffffff16905080826bffffffffffffffffffffffff161115620004745781816040517f6f483d090000000000000000000000000000000000000000000000000000000081526004016200046b92919062000b76565b60405180910390fd5b600073ffffffffffffffffffffffffffffffffffffffff168373ffffffffffffffffffffffffffffffffffffffff1603620004e95760006040517fb6d9900a000000000000000000000000000000000000000000000000000000008152600401620004e0919062000a02565b60405180910390fd5b60405180604001604052808473ffffffffffffffffffffffffffffffffffffffff168152602001836bffffffffffffffffffffffff16815250600660008201518160000160006101000a81548173ffffffffffffffffffffffffffffffffffffffff021916908373ffffffffffffffffffffffffffffffffffffffff16021790555060208201518160000160146101000a8154816bffffffffffffffffffffffff02191690836bffffffffffffffffffffffff160217905550905050505050565b6000612710905090565b600080fd5b600073ffffffffffffffffffffffffffffffffffffffff82169050919050565b6000620005e682620005b9565b9050919050565b620005f881620005d9565b81146200060457600080fd5b50565b6000815190506200061881620005ed565b92915050565b600080600080608085870312156200063b576200063a620005b4565b5b60006200064b8782880162000607565b94505060206200065e8782880162000607565b9350506040620006718782880162000607565b9250506060620006848782880162000607565b91505092959194509250565b600081519050919050565b7f4e487b7100000000000000000000000000000000000000000000000000000000600052604160045260246000fd5b7f4e487b7100000000000000000000000000000000000000000000000000000000600052602260045260246000fd5b600060028204905060018216806200071257607f821691505b602082108103620007285762000727620006ca565b5b50919050565b60008190508160005260206000209050919050565b60006020601f8301049050919050565b600082821b905092915050565b600060088302620007927fffffffffffffffffffffffffffffffffffffffffffffffffffffffffffffffff8262000753565b6200079e868362000753565b95508019841693508086168417925050509392505050565b6000819050919050565b6000819050919050565b6000620007eb620007e5620007df84620007b6565b620007c0565b620007b6565b9050919050565b6000819050919050565b6200080783620007ca565b6200081f6200081682620007f2565b84845462000760565b825550505050565b600090565b6200083662000827565b62000843818484620007fc565b505050565b5b818110156200086b576200085f6000826200082c565b60018101905062000849565b5050565b601f821115620008ba5762000884816200072e565b6200088f8462000743565b810160208510156200089f578190505b620008b7620008ae8562000743565b83018262000848565b50505b505050565b600082821c905092915050565b6000620008df60001984600802620008bf565b1980831691505092915050565b6000620008fa8383620008cc565b9150826002028217905092915050565b620009158262000690565b67ffffffffffffffff8111156200093157620009306200069b565b5b6200093d8254620006f9565b6200094a8282856200086f565b600060209050601f8311600181146200098257600084156200096d578287015190505b620009798582620008ec565b865550620009e9565b601f19841662000992866200072e565b60005b82811015620009bc5784890151825560018201915060208501945060208101905062000995565b86831015620009dc5784890151620009d8601f891682620008cc565b8355505b6001600288020188555050505b505050505050565b620009fc81620005d9565b82525050565b600060208201905062000a196000830184620009f1565b92915050565b600082825260208201905092915050565b7f496e76616c696420555344430000000000000000000000000000000000000000600082015250565b600062000a68600c8362000a1f565b915062000a758262000a30565b602082019050919050565b6000602082019050818103600083015262000a9b8162000a59565b9050919050565b7f496e76616c696420496d706c656d656e746174696f6e00000000000000000000600082015250565b600062000ada60168362000a1f565b915062000ae78262000aa2565b602082019050919050565b6000602082019050818103600083015262000b0d8162000acb565b9050919050565b60006bffffffffffffffffffffffff82169050919050565b600062000b4d62000b4762000b418462000b14565b620007c0565b620007b6565b9050919050565b62000b5f8162000b2c565b82525050565b62000b7081620007b6565b82525050565b600060408201905062000b8d600083018562000b54565b62000b9c602083018462000b65565b9392505050565b60805160a05160c05161506962000bf660003960008181610a6b0152610ead015260008181610ad0015261114001526000818161072b01528181610aaf01528181610d340152610d8001526150696000f3fe608060405234801561001057600080fd5b50600436106101e55760003560e01c80636352211e1161010f5780639c841fef116100a2578063c87b56dd11610071578063c87b56dd146105a7578063e7f3c69c146105d7578063e985e9c514610607578063f2fde38b14610637576101e5565b80639c841fef14610521578063a03e4bc314610551578063a22cb4651461056f578063b88d4fde1461058b576101e5565b8063803db96d116100de578063803db96d146104975780638da5cb5b146104b55780639094a91e146104d357806395d89b4114610503576101e5565b80636352211e146103fd578063652b9b411461042d57806370a082311461045d578063715018a61461048d576101e5565b806323b872dd1161018757806349c657db1161015657806349c657db1461037557806349f411b71461039357806355f804b3146103c35780635c60da1b146103df576101e5565b806323b872dd146102dc5780632a55205a146102f857806332f19a5c1461032957806342842e0e14610359576101e5565b8063095ea7b3116101c3578063095ea7b31461026857806311eac8551461028457806312ac1763146102a2578063194f5d9f146102c0576101e5565b806301ffc9a7146101ea57806306fdde031461021a578063081812fc14610238575b600080fd5b61020460048036038101906101ff9190612e95565b610653565b6040516102119190612edd565b60405180910390f35b610222610665565b60405161022f9190612f88565b60405180910390f35b610252600480360381019061024d9190612fe0565b6106f7565b60405161025f919061304e565b60405180910390f35b610282600480360381019061027d9190613095565b610713565b005b61028c610729565b604051610299919061304e565b60405180910390f35b6102aa61074d565b6040516102b791906130e4565b60405180910390f35b6102da60048036038101906102d591906130ff565b610753565b005b6102f660048036038101906102f1919061312c565b6107be565b005b610312600480360381019061030d919061317f565b6108c0565b6040516103209291906131bf565b60405180910390f35b610343600480360381019061033e9190612fe0565b6109f0565b604051610350919061304e565b60405180910390f35b610373600480360381019061036e919061312c565b610a23565b005b61037d610a43565b60405161038a919061320f565b60405180910390f35b6103ad60048036038101906103a8919061335f565b610a48565b6040516103ba919061304e565b60405180910390f35b6103dd60048036038101906103d891906133f6565b610e90565b005b6103e7610eab565b6040516103f4919061304e565b60405180910390f35b61041760048036038101906104129190612fe0565b610ecf565b604051610424919061304e565b60405180910390f35b610447600480360381019061044291906130ff565b610ee1565b6040516104549190612edd565b60405180910390f35b610477600480360381019061047291906130ff565b610f01565b60405161048491906130e4565b60405180910390f35b610495610fbb565b005b61049f610fcf565b6040516104ac919061304e565b60405180910390f35b6104bd610ff5565b6040516104ca919061304e565b60405180910390f35b6104ed60048036038101906104e89190612fe0565b61101f565b6040516104fa919061304e565b60405180910390f35b61050b61105e565b6040516105189190612f88565b60405180910390f35b61053b60048036038101906105369190613095565b6110f0565b604051610548919061304e565b60405180910390f35b61055961113e565b604051610566919061304e565b60405180910390f35b6105896004803603810190610584919061346b565b611162565b005b6105a560048036038101906105a0919061354c565b611178565b005b6105c160048036038101906105bc9190612fe0565b61119d565b6040516105ce9190612f88565b60405180910390f35b6105f160048036038101906105ec91906130ff565b611370565b6040516105fe919061368d565b60405180910390f35b610621600480360381019061061c91906136af565b61143d565b60405161062e9190612edd565b60405180910390f35b610651600480360381019061064c91906130ff565b6114d1565b005b600061065e82611557565b9050919050565b6060600080546106749061371e565b80601f01602080910402602001604051908101604052809291908181526020018280546106a09061371e565b80156106ed5780601f106106c2576101008083540402835291602001916106ed565b820191906000526020600020905b8154815290600101906020018083116106d057829003601f168201915b5050505050905090565b6000610702826115d1565b5061070c82611659565b9050919050565b6107258282610720611696565b61169e565b5050565b7f000000000000000000000000000000000000000000000000000000000000000081565b600a5481565b61075b6116b0565b8073ffffffffffffffffffffffffffffffffffffffff1663178ea6ad6040518163ffffffff1660e01b8152600401600060405180830381600087803b1580156107a357600080fd5b505af11580156107b7573d6000803e3d6000fd5b5050505050565b600073ffffffffffffffffffffffffffffffffffffffff168273ffffffffffffffffffffffffffffffffffffffff16036108305760006040517f64a0ae92000000000000000000000000000000000000000000000000000000008152600401610827919061304e565b60405180910390fd5b6000610844838361083f611696565b611737565b90508373ffffffffffffffffffffffffffffffffffffffff168173ffffffffffffffffffffffffffffffffffffffff16146108ba578382826040517f64283d7b0000000000000000000000000000000000000000000000000000000081526004016108b19392919061374f565b60405180910390fd5b50505050565b600080600060076000868152602001908152602001600020905060008160000160009054906101000a900473ffffffffffffffffffffffffffffffffffffffff16905060008260000160149054906101000a90046bffffffffffffffffffffffff169050600073ffffffffffffffffffffffffffffffffffffffff168273ffffffffffffffffffffffffffffffffffffffff16036109a157600660000160009054906101000a900473ffffffffffffffffffffffffffffffffffffffff169150600660000160149054906101000a90046bffffffffffffffffffffffff1690505b60006109ab611951565b6bffffffffffffffffffffffff16826bffffffffffffffffffffffff16886109d391906137b5565b6109dd9190613826565b9050828195509550505050509250929050565b600b6020528060005260406000206000915054906101000a900473ffffffffffffffffffffffffffffffffffffffff1681565b610a3e83838360405180602001604052806000815250611178565b505050565b60fa81565b600080600a6000815480929190610a5e90613857565b9190505590506000610a8f7f000000000000000000000000000000000000000000000000000000000000000061195b565b90508073ffffffffffffffffffffffffffffffffffffffff16635084fd487f00000000000000000000000000000000000000000000000000000000000000007f00000000000000000000000000000000000000000000000000000000000000008b8b8b600960009054906101000a900473ffffffffffffffffffffffffffffffffffffffff168b8a6040518963ffffffff1660e01b8152600401610b3a98979695949392919061389f565b600060405180830381600087803b158015610b5457600080fd5b505af1158015610b68573d6000803e3d6000fd5b5050505080600b600084815260200190815260200160002060006101000a81548173ffffffffffffffffffffffffffffffffffffffff021916908373ffffffffffffffffffffffffffffffffffffffff1602179055506001600c60008373ffffffffffffffffffffffffffffffffffffffff1673ffffffffffffffffffffffffffffffffffffffff16815260200190815260200160002060006101000a81548160ff021916908315150217905550600d60003373ffffffffffffffffffffffffffffffffffffffff1673ffffffffffffffffffffffffffffffffffffffff168152602001908152602001600020819080600181540180825580915050600190039060005260206000200160009091909190916101000a81548173ffffffffffffffffffffffffffffffffffffffff021916908373ffffffffffffffffffffffffffffffffffffffff160217905550600e819080600181540180825580915050600190039060005260206000200160009091909190916101000a81548173ffffffffffffffffffffffffffffffffffffffff021916908373ffffffffffffffffffffffffffffffffffffffff160217905550610d23338361196f565b6000851115610e3057610d793330877f000000000000000000000000000000000000000000000000000000000000000073ffffffffffffffffffffffffffffffffffffffff1661198d909392919063ffffffff16565b610dc481867f000000000000000000000000000000000000000000000000000000000000000073ffffffffffffffffffffffffffffffffffffffff16611a0f9092919063ffffffff16565b8073ffffffffffffffffffffffffffffffffffffffff16635cdd1009866040518263ffffffff1660e01b8152600401610dfd91906130e4565b600060405180830381600087803b158015610e1757600080fd5b505af1158015610e2b573d6000803e3d6000fd5b505050505b3373ffffffffffffffffffffffffffffffffffffffff167f3df58ad1674826c10252882b795e1ed5dc6f88b11895bf9a30c5d494d940046f82848b604051610e7a93929190613924565b60405180910390a2809250505095945050505050565b610e986116b0565b80600f9081610ea79190613b0e565b5050565b7f000000000000000000000000000000000000000000000000000000000000000081565b6000610eda826115d1565b9050919050565b600c6020528060005260406000206000915054906101000a900460ff1681565b60008073ffffffffffffffffffffffffffffffffffffffff168273ffffffffffffffffffffffffffffffffffffffff1603610f745760006040517f89c62b64000000000000000000000000000000000000000000000000000000008152600401610f6b919061304e565b60405180910390fd5b600360008373ffffffffffffffffffffffffffffffffffffffff1673ffffffffffffffffffffffffffffffffffffffff168152602001908152602001600020549050919050565b610fc36116b0565b610fcd6000611a8e565b565b600960009054906101000a900473ffffffffffffffffffffffffffffffffffffffff1681565b6000600860009054906101000a900473ffffffffffffffffffffffffffffffffffffffff16905090565b600e818154811061102f57600080fd5b906000526020600020016000915054906101000a900473ffffffffffffffffffffffffffffffffffffffff1681565b60606001805461106d9061371e565b80601f01602080910402602001604051908101604052809291908181526020018280546110999061371e565b80156110e65780601f106110bb576101008083540402835291602001916110e6565b820191906000526020600020905b8154815290600101906020018083116110c957829003601f168201915b5050505050905090565b600d602052816000526040600020818154811061110c57600080fd5b906000526020600020016000915091509054906101000a900473ffffffffffffffffffffffffffffffffffffffff1681565b7f000000000000000000000000000000000000000000000000000000000000000081565b61117461116d611696565b8383611b54565b5050565b6111838484846107be565b61119761118e611696565b85858585611cc3565b50505050565b60606111a8826115d1565b506000600b600084815260200190815260200160002060009054906101000a900473ffffffffffffffffffffffffffffffffffffffff16905060008173ffffffffffffffffffffffffffffffffffffffff166370740aab6040518163ffffffff1660e01b8152600401600060405180830381865afa15801561122e573d6000803e3d6000fd5b505050506040513d6000823e3d601f19601f820116820180604052508101906112579190613c50565b905060008273ffffffffffffffffffffffffffffffffffffffff166301e1d1146040518163ffffffff1660e01b8152600401602060405180830381865afa1580156112a6573d6000803e3d6000fd5b505050506040513d601f19601f820116820180604052508101906112ca9190613cae565b905060006112d88383611e74565b905060006112e5836121a4565b90506000816112f3896122bd565b6112fc8561238b565b8785611315620f42408a6113109190613826565b6122bd565b60405160200161132a96959493929190614165565b60405160208183030381529060405290506113448161238b565b60405160200161135491906142a3565b6040516020818303038152906040529650505050505050919050565b6060600d60008373ffffffffffffffffffffffffffffffffffffffff1673ffffffffffffffffffffffffffffffffffffffff16815260200190815260200160002080548060200260200160405190810160405280929190818152602001828054801561143157602002820191906000526020600020905b8160009054906101000a900473ffffffffffffffffffffffffffffffffffffffff1673ffffffffffffffffffffffffffffffffffffffff16815260200190600101908083116113e7575b50505050509050919050565b6000600560008473ffffffffffffffffffffffffffffffffffffffff1673ffffffffffffffffffffffffffffffffffffffff16815260200190815260200160002060008373ffffffffffffffffffffffffffffffffffffffff1673ffffffffffffffffffffffffffffffffffffffff16815260200190815260200160002060009054906101000a900460ff16905092915050565b6114d96116b0565b600073ffffffffffffffffffffffffffffffffffffffff168173ffffffffffffffffffffffffffffffffffffffff160361154b5760006040517f1e4fbdf7000000000000000000000000000000000000000000000000000000008152600401611542919061304e565b60405180910390fd5b61155481611a8e565b50565b60007f2a55205a000000000000000000000000000000000000000000000000000000007bffffffffffffffffffffffffffffffffffffffffffffffffffffffff1916827bffffffffffffffffffffffffffffffffffffffffffffffffffffffff191614806115ca57506115c9826123b8565b5b9050919050565b6000806115dd8361249a565b9050600073ffffffffffffffffffffffffffffffffffffffff168173ffffffffffffffffffffffffffffffffffffffff160361165057826040517f7e27328900000000000000000000000000000000000000000000000000000000815260040161164791906130e4565b60405180910390fd5b80915050919050565b60006004600083815260200190815260200160002060009054906101000a900473ffffffffffffffffffffffffffffffffffffffff169050919050565b600033905090565b6116ab83838360016124d7565b505050565b6116b8611696565b73ffffffffffffffffffffffffffffffffffffffff166116d6610ff5565b73ffffffffffffffffffffffffffffffffffffffff1614611735576116f9611696565b6040517f118cdaa700000000000000000000000000000000000000000000000000000000815260040161172c919061304e565b60405180910390fd5b565b6000806117438461249a565b9050600073ffffffffffffffffffffffffffffffffffffffff168373ffffffffffffffffffffffffffffffffffffffff16146117855761178481848661269c565b5b600073ffffffffffffffffffffffffffffffffffffffff168173ffffffffffffffffffffffffffffffffffffffff1614611816576117c76000856000806124d7565b6001600360008373ffffffffffffffffffffffffffffffffffffffff1673ffffffffffffffffffffffffffffffffffffffff168152602001908152602001600020600082825403925050819055505b600073ffffffffffffffffffffffffffffffffffffffff168573ffffffffffffffffffffffffffffffffffffffff1614611899576001600360008773ffffffffffffffffffffffffffffffffffffffff1673ffffffffffffffffffffffffffffffffffffffff168152602001908152602001600020600082825401925050819055505b846002600086815260200190815260200160002060006101000a81548173ffffffffffffffffffffffffffffffffffffffff021916908373ffffffffffffffffffffffffffffffffffffffff160217905550838573ffffffffffffffffffffffffffffffffffffffff168273ffffffffffffffffffffffffffffffffffffffff167fddf252ad1be2c89b69c2b068fc378daa952ba7f163c4a11628f55a4df523b3ef60405160405180910390a4809150509392505050565b6000612710905090565b6000611968826000612760565b9050919050565b611989828260405180602001604052806000815250612858565b5050565b611a09848573ffffffffffffffffffffffffffffffffffffffff166323b872dd8686866040516024016119c2939291906142c5565b604051602081830303815290604052915060e01b6020820180517bffffffffffffffffffffffffffffffffffffffffffffffffffffffff838183161783525050505061287c565b50505050565b611a89838473ffffffffffffffffffffffffffffffffffffffff1663a9059cbb8585604051602401611a429291906131bf565b604051602081830303815290604052915060e01b6020820180517bffffffffffffffffffffffffffffffffffffffffffffffffffffffff838183161783525050505061287c565b505050565b6000600860009054906101000a900473ffffffffffffffffffffffffffffffffffffffff16905081600860006101000a81548173ffffffffffffffffffffffffffffffffffffffff021916908373ffffffffffffffffffffffffffffffffffffffff1602179055508173ffffffffffffffffffffffffffffffffffffffff168173ffffffffffffffffffffffffffffffffffffffff167f8be0079c531659141344cd1fd0a4f28419497f9722a3daafe3b4186f6b6457e060405160405180910390a35050565b600073ffffffffffffffffffffffffffffffffffffffff168273ffffffffffffffffffffffffffffffffffffffff1603611bc557816040517f5b08ba18000000000000000000000000000000000000000000000000000000008152600401611bbc919061304e565b60405180910390fd5b80600560008573ffffffffffffffffffffffffffffffffffffffff1673ffffffffffffffffffffffffffffffffffffffff16815260200190815260200160002060008473ffffffffffffffffffffffffffffffffffffffff1673ffffffffffffffffffffffffffffffffffffffff16815260200190815260200160002060006101000a81548160ff0219169083151502179055508173ffffffffffffffffffffffffffffffffffffffff168373ffffffffffffffffffffffffffffffffffffffff167f17307eab39ab6107e8899845ad3d59bd9653f200f220920489ca2b5937696c3183604051611cb69190612edd565b60405180910390a3505050565b60008373ffffffffffffffffffffffffffffffffffffffff163b1115611e6d578273ffffffffffffffffffffffffffffffffffffffff1663150b7a02868685856040518563ffffffff1660e01b8152600401611d229493929190614351565b6020604051808303816000875af1925050508015611d5e57506040513d601f19601f82011682018060405250810190611d5b91906143b2565b60015b611de2573d8060008114611d8e576040519150601f19603f3d011682016040523d82523d6000602084013e611d93565b606091505b506000815103611dda57836040517f64a0ae92000000000000000000000000000000000000000000000000000000008152600401611dd1919061304e565b60405180910390fd5b805160208201fd5b63150b7a0260e01b7bffffffffffffffffffffffffffffffffffffffffffffffffffffffff1916817bffffffffffffffffffffffffffffffffffffffffffffffffffffffff191614611e6b57836040517f64a0ae92000000000000000000000000000000000000000000000000000000008152600401611e62919061304e565b60405180910390fd5b505b5050505050565b60606000611e8f620f424084611e8a9190613826565b6122bd565b604051602001611e9f919061442b565b60405160208183030381529060405290506000611ebb846121a4565b905060006040518060400160405280600781526020017f2363643766333200000000000000000000000000000000000000000000000000815250905060006040518060400160405280600781526020017f234536323035380000000000000000000000000000000000000000000000000081525090506040518060400160405280600881526020017f506c6174696e756d00000000000000000000000000000000000000000000000081525080519060200120838051906020012003611ff0576040518060400160405280600781526020017f234535453445320000000000000000000000000000000000000000000000000081525091506040518060400160405280600481526020017f2366666600000000000000000000000000000000000000000000000000000000815250905061216c565b6040518060400160405280600481526020017f476f6c6400000000000000000000000000000000000000000000000000000000815250805190602001208380519060200120036120af576040518060400160405280600781526020017f234646443730300000000000000000000000000000000000000000000000000081525091506040518060400160405280600781526020017f2346464437303000000000000000000000000000000000000000000000000000815250905061216b565b6040518060400160405280600681526020017f53696c76657200000000000000000000000000000000000000000000000000008152508051906020012083805190602001200361216a576040518060400160405280600781526020017f234330433043300000000000000000000000000000000000000000000000000081525091506040518060400160405280600781526020017f234330433043300000000000000000000000000000000000000000000000000081525090505b5b5b80828385848b896040516020016121899796959493929190614e3f565b60405160208183030381529060405294505050505092915050565b60606402540be40082106121ef576040518060400160405280600881526020017f506c6174696e756d00000000000000000000000000000000000000000000000081525090506122b8565b633b9aca008210612237576040518060400160405280600481526020017f476f6c640000000000000000000000000000000000000000000000000000000081525090506122b8565b6305f5e100821061227f576040518060400160405280600681526020017f53696c766572000000000000000000000000000000000000000000000000000081525090506122b8565b6040518060400160405280600681526020017f42726f6e7a65000000000000000000000000000000000000000000000000000081525090505b919050565b6060600060016122cc8461291e565b01905060008167ffffffffffffffff8111156122eb576122ea613234565b5b6040519080825280601f01601f19166020018201604052801561231d5781602001600182028036833780820191505090505b509050600082602083010190505b600115612380578080600190039150507f3031323334353637383961626364656600000000000000000000000000000000600a86061a8153600a8581612374576123736137f7565b5b0494506000850361232b575b819350505050919050565b60606123b182604051806060016040528060408152602001614ff4604091396001612a71565b9050919050565b60007f80ac58cd000000000000000000000000000000000000000000000000000000007bffffffffffffffffffffffffffffffffffffffffffffffffffffffff1916827bffffffffffffffffffffffffffffffffffffffffffffffffffffffff1916148061248357507f5b5e139f000000000000000000000000000000000000000000000000000000007bffffffffffffffffffffffffffffffffffffffffffffffffffffffff1916827bffffffffffffffffffffffffffffffffffffffffffffffffffffffff1916145b80612493575061249282612c05565b5b9050919050565b60006002600083815260200190815260200160002060009054906101000a900473ffffffffffffffffffffffffffffffffffffffff169050919050565b80806125105750600073ffffffffffffffffffffffffffffffffffffffff168273ffffffffffffffffffffffffffffffffffffffff1614155b15612644576000612520846115d1565b9050600073ffffffffffffffffffffffffffffffffffffffff168373ffffffffffffffffffffffffffffffffffffffff161415801561258b57508273ffffffffffffffffffffffffffffffffffffffff168173ffffffffffffffffffffffffffffffffffffffff1614155b801561259e575061259c818461143d565b155b156125e057826040517fa9fbf51f0000000000000000000000000000000000000000000000000000000081526004016125d7919061304e565b60405180910390fd5b811561264257838573ffffffffffffffffffffffffffffffffffffffff168273ffffffffffffffffffffffffffffffffffffffff167f8c5be1e5ebec7d5bd14f71427d1e84f3dd0314c0f7b2291e5b200ac8c7c3b92560405160405180910390a45b505b836004600085815260200190815260200160002060006101000a81548173ffffffffffffffffffffffffffffffffffffffff021916908373ffffffffffffffffffffffffffffffffffffffff16021790555050505050565b6126a7838383612c6f565b61275b57600073ffffffffffffffffffffffffffffffffffffffff168373ffffffffffffffffffffffffffffffffffffffff160361271c57806040517f7e27328900000000000000000000000000000000000000000000000000000000815260040161271391906130e4565b60405180910390fd5b81816040517f177e802f0000000000000000000000000000000000000000000000000000000081526004016127529291906131bf565b60405180910390fd5b505050565b6000814710156127a95747826040517fcf4791810000000000000000000000000000000000000000000000000000000081526004016127a0929190614f96565b60405180910390fd5b763d602d80600a3d3981f3363d3d373d3d3d363d730000008360601b60e81c176000526e5af43d82803e903d91602b57fd5bf38360781b176020526037600983f09050600073ffffffffffffffffffffffffffffffffffffffff168173ffffffffffffffffffffffffffffffffffffffff1603612852576040517fb06ebf3d00000000000000000000000000000000000000000000000000000000815260040160405180910390fd5b92915050565b6128628383612d30565b61287761286d611696565b6000858585611cc3565b505050565b600080602060008451602086016000885af18061289f576040513d6000823e3d81fd5b3d9250600051915050600082146128ba5760018114156128d6565b60008473ffffffffffffffffffffffffffffffffffffffff163b145b1561291857836040517f5274afe700000000000000000000000000000000000000000000000000000000815260040161290f919061304e565b60405180910390fd5b50505050565b600080600090507a184f03e93ff9f4daa797ed6e38ed64bf6a1f010000000000000000831061297c577a184f03e93ff9f4daa797ed6e38ed64bf6a1f0100000000000000008381612972576129716137f7565b5b0492506040810190505b6d04ee2d6d415b85acef810000000083106129b9576d04ee2d6d415b85acef810000000083816129af576129ae6137f7565b5b0492506020810190505b662386f26fc1000083106129e857662386f26fc1000083816129de576129dd6137f7565b5b0492506010810190505b6305f5e1008310612a11576305f5e1008381612a0757612a066137f7565b5b0492506008810190505b6127108310612a36576127108381612a2c57612a2b6137f7565b5b0492506004810190505b60648310612a595760648381612a4f57612a4e6137f7565b5b0492506002810190505b600a8310612a68576001810190505b80915050919050565b60606000845103612a9357604051806020016040528060008152509050612bfe565b600082612ac5576003600286516004612aac91906137b5565b612ab69190614fbf565b612ac09190613826565b612aec565b600360028651612ad59190614fbf565b612adf9190613826565b6004612aeb91906137b5565b5b905060008167ffffffffffffffff811115612b0a57612b09613234565b5b6040519080825280601f01601f191660200182016040528015612b3c5781602001600182028036833780820191505090505b50905060018501602082018788518901602081018051600082525b82841015612bb2576003840193508351603f8160121c168701518653600186019550603f81600c1c168701518653600186019550603f8160061c168701518653600186019550603f8116870151865360018601955050612b57565b8082528915612bf25760038c510660018114612bd55760028114612be857612bf0565b603d6001870353603d6002870353612bf0565b603d60018703535b505b50505050505080925050505b9392505050565b60007f01ffc9a7000000000000000000000000000000000000000000000000000000007bffffffffffffffffffffffffffffffffffffffffffffffffffffffff1916827bffffffffffffffffffffffffffffffffffffffffffffffffffffffff1916149050919050565b60008073ffffffffffffffffffffffffffffffffffffffff168373ffffffffffffffffffffffffffffffffffffffff1614158015612d2757508273ffffffffffffffffffffffffffffffffffffffff168473ffffffffffffffffffffffffffffffffffffffff161480612ce85750612ce7848461143d565b5b80612d2657508273ffffffffffffffffffffffffffffffffffffffff16612d0e83611659565b73ffffffffffffffffffffffffffffffffffffffff16145b5b90509392505050565b600073ffffffffffffffffffffffffffffffffffffffff168273ffffffffffffffffffffffffffffffffffffffff1603612da25760006040517f64a0ae92000000000000000000000000000000000000000000000000000000008152600401612d99919061304e565b60405180910390fd5b6000612db083836000611737565b9050600073ffffffffffffffffffffffffffffffffffffffff168173ffffffffffffffffffffffffffffffffffffffff1614612e245760006040517f73c6ac6e000000000000000000000000000000000000000000000000000000008152600401612e1b919061304e565b60405180910390fd5b505050565b6000604051905090565b600080fd5b600080fd5b60007fffffffff0000000000000000000000000000000000000000000000000000000082169050919050565b612e7281612e3d565b8114612e7d57600080fd5b50565b600081359050612e8f81612e69565b92915050565b600060208284031215612eab57612eaa612e33565b5b6000612eb984828501612e80565b91505092915050565b60008115159050919050565b612ed781612ec2565b82525050565b6000602082019050612ef26000830184612ece565b92915050565b600081519050919050565b600082825260208201905092915050565b60005b83811015612f32578082015181840152602081019050612f17565b60008484015250505050565b6000601f19601f8301169050919050565b6000612f5a82612ef8565b612f648185612f03565b9350612f74818560208601612f14565b612f7d81612f3e565b840191505092915050565b60006020820190508181036000830152612fa28184612f4f565b905092915050565b6000819050919050565b612fbd81612faa565b8114612fc857600080fd5b50565b600081359050612fda81612fb4565b92915050565b600060208284031215612ff657612ff5612e33565b5b600061300484828501612fcb565b91505092915050565b600073ffffffffffffffffffffffffffffffffffffffff82169050919050565b60006130388261300d565b9050919050565b6130488161302d565b82525050565b6000602082019050613063600083018461303f565b92915050565b6130728161302d565b811461307d57600080fd5b50565b60008135905061308f81613069565b92915050565b600080604083850312156130ac576130ab612e33565b5b60006130ba85828601613080565b92505060206130cb85828601612fcb565b9150509250929050565b6130de81612faa565b82525050565b60006020820190506130f960008301846130d5565b92915050565b60006020828403121561311557613114612e33565b5b600061312384828501613080565b91505092915050565b60008060006060848603121561314557613144612e33565b5b600061315386828701613080565b935050602061316486828701613080565b925050604061317586828701612fcb565b9150509250925092565b6000806040838503121561319657613195612e33565b5b60006131a485828601612fcb565b92505060206131b585828601612fcb565b9150509250929050565b60006040820190506131d4600083018561303f565b6131e160208301846130d5565b9392505050565b60006bffffffffffffffffffffffff82169050919050565b613209816131e8565b82525050565b60006020820190506132246000830184613200565b92915050565b600080fd5b600080fd5b7f4e487b7100000000000000000000000000000000000000000000000000000000600052604160045260246000fd5b61326c82612f3e565b810181811067ffffffffffffffff8211171561328b5761328a613234565b5b80604052505050565b600061329e612e29565b90506132aa8282613263565b919050565b600067ffffffffffffffff8211156132ca576132c9613234565b5b6132d382612f3e565b9050602081019050919050565b82818337600083830152505050565b60006133026132fd846132af565b613294565b90508281526020810184848401111561331e5761331d61322f565b5b6133298482856132e0565b509392505050565b600082601f8301126133465761334561322a565b5b81356133568482602086016132ef565b91505092915050565b600080600080600060a0868803121561337b5761337a612e33565b5b600086013567ffffffffffffffff81111561339957613398612e38565b5b6133a588828901613331565b95505060206133b688828901612fcb565b94505060406133c788828901612fcb565b93505060606133d888828901612fcb565b92505060806133e988828901613080565b9150509295509295909350565b60006020828403121561340c5761340b612e33565b5b600082013567ffffffffffffffff81111561342a57613429612e38565b5b61343684828501613331565b91505092915050565b61344881612ec2565b811461345357600080fd5b50565b6000813590506134658161343f565b92915050565b6000806040838503121561348257613481612e33565b5b600061349085828601613080565b92505060206134a185828601613456565b9150509250929050565b600067ffffffffffffffff8211156134c6576134c5613234565b5b6134cf82612f3e565b9050602081019050919050565b60006134ef6134ea846134ab565b613294565b90508281526020810184848401111561350b5761350a61322f565b5b6135168482856132e0565b509392505050565b600082601f8301126135335761353261322a565b5b81356135438482602086016134dc565b91505092915050565b6000806000806080858703121561356657613565612e33565b5b600061357487828801613080565b945050602061358587828801613080565b935050604061359687828801612fcb565b925050606085013567ffffffffffffffff8111156135b7576135b6612e38565b5b6135c38782880161351e565b91505092959194509250565b600081519050919050565b600082825260208201905092915050565b6000819050602082019050919050565b6136048161302d565b82525050565b600061361683836135fb565b60208301905092915050565b6000602082019050919050565b600061363a826135cf565b61364481856135da565b935061364f836135eb565b8060005b83811015613680578151613667888261360a565b975061367283613622565b925050600181019050613653565b5085935050505092915050565b600060208201905081810360008301526136a7818461362f565b905092915050565b600080604083850312156136c6576136c5612e33565b5b60006136d485828601613080565b92505060206136e585828601613080565b9150509250929050565b7f4e487b7100000000000000000000000000000000000000000000000000000000600052602260045260246000fd5b6000600282049050600182168061373657607f821691505b602082108103613749576137486136ef565b5b50919050565b6000606082019050613764600083018661303f565b61377160208301856130d5565b61377e604083018461303f565b949350505050565b7f4e487b7100000000000000000000000000000000000000000000000000000000600052601160045260246000fd5b60006137c082612faa565b91506137cb83612faa565b92508282026137d981612faa565b915082820484148315176137f0576137ef613786565b5b5092915050565b7f4e487b7100000000000000000000000000000000000000000000000000000000600052601260045260246000fd5b600061383182612faa565b915061383c83612faa565b92508261384c5761384b6137f7565b5b828204905092915050565b600061386282612faa565b91507fffffffffffffffffffffffffffffffffffffffffffffffffffffffffffffffff820361389457613893613786565b5b600182019050919050565b6000610100820190506138b5600083018b61303f565b6138c2602083018a61303f565b81810360408301526138d48189612f4f565b90506138e360608301886130d5565b6138f060808301876130d5565b6138fd60a083018661303f565b61390a60c083018561303f565b61391760e08301846130d5565b9998505050505050505050565b6000606082019050613939600083018661303f565b61394660208301856130d5565b81810360408301526139588184612f4f565b9050949350505050565b60008190508160005260206000209050919050565b60006020601f8301049050919050565b600082821b905092915050565b6000600883026139c47fffffffffffffffffffffffffffffffffffffffffffffffffffffffffffffffff82613987565b6139ce8683613987565b95508019841693508086168417925050509392505050565b6000819050919050565b6000613a0b613a06613a0184612faa565b6139e6565b612faa565b9050919050565b6000819050919050565b613a25836139f0565b613a39613a3182613a12565b848454613994565b825550505050565b600090565b613a4e613a41565b613a59818484613a1c565b505050565b5b81811015613a7d57613a72600082613a46565b600181019050613a5f565b5050565b601f821115613ac257613a9381613962565b613a9c84613977565b81016020851015613aab578190505b613abf613ab785613977565b830182613a5e565b50505b505050565b600082821c905092915050565b6000613ae560001984600802613ac7565b1980831691505092915050565b6000613afe8383613ad4565b9150826002028217905092915050565b613b1782612ef8565b67ffffffffffffffff811115613b3057613b2f613234565b5b613b3a825461371e565b613b45828285613a81565b600060209050601f831160018114613b785760008415613b66578287015190505b613b708582613af2565b865550613bd8565b601f198416613b8686613962565b60005b82811015613bae57848901518255600182019150602085019450602081019050613b89565b86831015613bcb5784890151613bc7601f891682613ad4565b8355505b6001600288020188555050505b505050505050565b6000613bf3613bee846132af565b613294565b905082815260208101848484011115613c0f57613c0e61322f565b5b613c1a848285612f14565b509392505050565b600082601f830112613c3757613c3661322a565b5b8151613c47848260208601613be0565b91505092915050565b600060208284031215613c6657613c65612e33565b5b600082015167ffffffffffffffff811115613c8457613c83612e38565b5b613c9084828501613c22565b91505092915050565b600081519050613ca881612fb4565b92915050565b600060208284031215613cc457613cc3612e33565b5b6000613cd284828501613c99565b91505092915050565b600081905092915050565b7f7b226e616d65223a202253617669717565200000000000000000000000000000600082015250565b6000613d1c601283613cdb565b9150613d2782613ce6565b601282019050919050565b6000613d3d82612ef8565b613d478185613cdb565b9350613d57818560208601612f14565b80840191505092915050565b7f205661756c742023000000000000000000000000000000000000000000000000600082015250565b6000613d99600883613cdb565b9150613da482613d63565b600882019050919050565b7f222c200000000000000000000000000000000000000000000000000000000000600082015250565b6000613de5600383613cdb565b9150613df082613daf565b600382019050919050565b7f226465736372697074696f6e223a2022412074696572656420736176696e677360008201527f207661756c74206f6e20536176697175652050726f746f636f6c2e222c200000602082015250565b6000613e57603e83613cdb565b9150613e6282613dfb565b603e82019050919050565b7f22696d616765223a2022646174613a696d6167652f7376672b786d6c3b62617360008201527f6536342c00000000000000000000000000000000000000000000000000000000602082015250565b6000613ec9602483613cdb565b9150613ed482613e6d565b602482019050919050565b7f2261747472696275746573223a205b0000000000000000000000000000000000600082015250565b6000613f15600f83613cdb565b9150613f2082613edf565b600f82019050919050565b7f7b2274726169745f74797065223a2022507572706f7365222c202276616c756560008201527f223a202200000000000000000000000000000000000000000000000000000000602082015250565b6000613f87602483613cdb565b9150613f9282613f2b565b602482019050919050565b7f227d2c2000000000000000000000000000000000000000000000000000000000600082015250565b6000613fd3600483613cdb565b9150613fde82613f9d565b600482019050919050565b7f7b2274726169745f74797065223a202254696572222c202276616c7565223a2060008201527f2200000000000000000000000000000000000000000000000000000000000000602082015250565b6000614045602183613cdb565b915061405082613fe9565b602182019050919050565b7f7b2274726169745f74797065223a202242616c616e6365222c202276616c756560008201527f223a202200000000000000000000000000000000000000000000000000000000602082015250565b60006140b7602483613cdb565b91506140c28261405b565b602482019050919050565b7f2055534443227d00000000000000000000000000000000000000000000000000600082015250565b6000614103600783613cdb565b915061410e826140cd565b600782019050919050565b7f5d7d000000000000000000000000000000000000000000000000000000000000600082015250565b600061414f600283613cdb565b915061415a82614119565b600282019050919050565b600061417082613d0f565b915061417c8289613d32565b915061418782613d8c565b91506141938288613d32565b915061419e82613dd8565b91506141a982613e4a565b91506141b482613ebc565b91506141c08287613d32565b91506141cb82613dd8565b91506141d682613f08565b91506141e182613f7a565b91506141ed8286613d32565b91506141f882613fc6565b915061420382614038565b915061420f8285613d32565b915061421a82613fc6565b9150614225826140aa565b91506142318284613d32565b915061423c826140f6565b915061424782614142565b9150819050979650505050505050565b7f646174613a6170706c69636174696f6e2f6a736f6e3b6261736536342c000000600082015250565b600061428d601d83613cdb565b915061429882614257565b601d82019050919050565b60006142ae82614280565b91506142ba8284613d32565b915081905092915050565b60006060820190506142da600083018661303f565b6142e7602083018561303f565b6142f460408301846130d5565b949350505050565b600081519050919050565b600082825260208201905092915050565b6000614323826142fc565b61432d8185614307565b935061433d818560208601612f14565b61434681612f3e565b840191505092915050565b6000608082019050614366600083018761303f565b614373602083018661303f565b61438060408301856130d5565b81810360608301526143928184614318565b905095945050505050565b6000815190506143ac81612e69565b92915050565b6000602082840312156143c8576143c7612e33565b5b60006143d68482850161439d565b91505092915050565b7f2055534443000000000000000000000000000000000000000000000000000000600082015250565b6000614415600583613cdb565b9150614420826143df565b600582019050919050565b60006144378284613d32565b915061444282614408565b915081905092915050565b7f3c7376672077696474683d2234303022206865696768743d223430302220786d60008201527f6c6e733d22687474703a2f2f7777772e77332e6f72672f323030302f7376672260208201527f3e00000000000000000000000000000000000000000000000000000000000000604082015250565b60006144cf604183613cdb565b91506144da8261444d565b604182019050919050565b7f3c646566733e3c6c696e6561724772616469656e742069643d2267726164222060008201527f78313d223025222079313d223025222078323d2231303025222079323d22313060208201527f3025223e00000000000000000000000000000000000000000000000000000000604082015250565b6000614567604483613cdb565b9150614572826144e5565b604482019050919050565b7f3c73746f70206f66667365743d22302522207374796c653d2273746f702d636f60008201527f6c6f723a233138313831623b73746f702d6f7061636974793a3122202f3e0000602082015250565b60006145d9603e83613cdb565b91506145e48261457d565b603e82019050919050565b7f3c73746f70206f66667365743d223130302522207374796c653d2273746f702d60008201527f636f6c6f723a233039303930623b73746f702d6f7061636974793a3122202f3e602082015250565b600061464b604083613cdb565b9150614656826145ef565b604082019050919050565b7f3c2f6c696e6561724772616469656e743e3c2f646566733e0000000000000000600082015250565b6000614697601883613cdb565b91506146a282614661565b601882019050919050565b7f3c726563742077696474683d2234303022206865696768743d2234303022207260008201527f783d223234222066696c6c3d2275726c28236772616429222f3e000000000000602082015250565b6000614709603a83613cdb565b9150614714826146ad565b603a82019050919050565b7f3c7265637420783d2231302220793d223130222077696474683d22333830222060008201527f6865696768743d22333830222072783d223230222066696c6c3d226e6f6e652260208201527f207374726f6b653d220000000000000000000000000000000000000000000000604082015250565b60006147a1604983613cdb565b91506147ac8261471f565b604982019050919050565b7f22207374726f6b652d77696474683d223122206f7061636974793d22302e342260008201527f2f3e000000000000000000000000000000000000000000000000000000000000602082015250565b6000614813602283613cdb565b915061481e826147b7565b602282019050919050565b7f3c7465787420783d2234302220793d2237302220666f6e742d66616d696c793d60008201527f22417269616c2c2073616e732d73657269662220666f6e742d73697a653d223260208201527f382220666f6e742d7765696768743d22626f6c64222066696c6c3d2200000000604082015250565b60006148ab605c83613cdb565b91506148b682614829565b605c82019050919050565b7f223e534156495155453c2f746578743e00000000000000000000000000000000600082015250565b60006148f7601083613cdb565b9150614902826148c1565b601082019050919050565b7f3c7465787420783d223336302220793d2237302220666f6e742d66616d696c7960008201527f3d22417269616c2c2073616e732d73657269662220666f6e742d73697a653d2260208201527f31342220666f6e742d7765696768743d22626f6c64222066696c6c3d22000000604082015250565b600061498f605d83613cdb565b915061499a8261490d565b605d82019050919050565b7f2220746578742d616e63686f723d22656e64223e000000000000000000000000600082015250565b60006149db601483613cdb565b91506149e6826149a5565b601482019050919050565b7f3c2f746578743e00000000000000000000000000000000000000000000000000600082015250565b6000614a27600783613cdb565b9150614a32826149f1565b600782019050919050565b7f3c7265637420783d2234302220793d223930222077696474683d22343022206860008201527f65696768743d2234222066696c6c3d2200000000000000000000000000000000602082015250565b6000614a99603083613cdb565b9150614aa482614a3d565b603082019050919050565b7f222f3e0000000000000000000000000000000000000000000000000000000000600082015250565b6000614ae5600383613cdb565b9150614af082614aaf565b600382019050919050565b7f3c7465787420783d2234302220793d223230302220666f6e742d66616d696c7960008201527f3d22417269616c2c2073616e732d73657269662220666f6e742d73697a653d2260208201527f32342220666f6e742d7765696768743d22626f6c64222066696c6c3d2223666660408201527f66223e0000000000000000000000000000000000000000000000000000000000606082015250565b6000614ba3606383613cdb565b9150614bae82614afb565b606382019050919050565b7f3c7465787420783d2234302220793d223234302220666f6e742d66616d696c7960008201527f3d22417269616c2c2073616e732d73657269662220666f6e742d73697a653d2260208201527f3136222066696c6c3d2223396361336166223e546f74616c20416363756d756c60408201527f617465643c2f746578743e000000000000000000000000000000000000000000606082015250565b6000614c61606b83613cdb565b9150614c6c82614bb9565b606b82019050919050565b7f3c7465787420783d2234302220793d223238352220666f6e742d66616d696c7960008201527f3d22417269616c2c2073616e732d73657269662220666f6e742d73697a653d2260208201527f33382220666f6e742d7765696768743d22393030222066696c6c3d222366666660408201527f223e000000000000000000000000000000000000000000000000000000000000606082015250565b6000614d1f606283613cdb565b9150614d2a82614c77565b606282019050919050565b7f3c7465787420783d2234302220793d223336302220666f6e742d66616d696c7960008201527f3d22417269616c2c2073616e732d73657269662220666f6e742d73697a653d2260208201527f3132222066696c6c3d2223346235353633223e444543454e5452414c495a454460408201527f20534156494e4753205641554c543c2f746578743e0000000000000000000000606082015250565b6000614ddd607583613cdb565b9150614de882614d35565b607582019050919050565b7f3c2f7376673e0000000000000000000000000000000000000000000000000000600082015250565b6000614e29600683613cdb565b9150614e3482614df3565b600682019050919050565b6000614e4a826144c2565b9150614e558261455a565b9150614e60826145cc565b9150614e6b8261463e565b9150614e768261468a565b9150614e81826146fc565b9150614e8c82614794565b9150614e98828a613d32565b9150614ea382614806565b9150614eae8261489e565b9150614eba8289613d32565b9150614ec5826148ea565b9150614ed082614982565b9150614edc8288613d32565b9150614ee7826149ce565b9150614ef38287613d32565b9150614efe82614a1a565b9150614f0982614a8c565b9150614f158286613d32565b9150614f2082614ad8565b9150614f2b82614b96565b9150614f378285613d32565b9150614f4282614a1a565b9150614f4d82614c54565b9150614f5882614d12565b9150614f648284613d32565b9150614f6f82614a1a565b9150614f7a82614dd0565b9150614f8582614e1c565b915081905098975050505050505050565b6000604082019050614fab60008301856130d5565b614fb860208301846130d5565b9392505050565b6000614fca82612faa565b9150614fd583612faa565b9250828201905080821115614fed57614fec613786565b5b9291505056fe4142434445464748494a4b4c4d4e4f505152535455565758595a6162636465666768696a6b6c6d6e6f707172737475767778797a303132333435363738392b2fa26469706673582212207c401fe408b82ec7f9eb77570f768cbf526825ac2971e9fce89d0b406e8a22ad64736f6c63430008140033",
  "linkReferences": {},
  "deployedLinkReferences": {}
}